:100000002CC100000C942C170C9453174EC1000007
:100010004CC100004AC1000048C100000C94731B91
:1000200044C1000042C1000040C100003EC10000C8
:100030003CC100000C94D91B38C1000036C100003F
:100040000C947A1732C100000C94D0190C94021A47
:100050002CC100002AC1000028C1000026C10000F8
:100060003FC3000022C10000D9239825022605269F
:10007000DC240F259823B9237C23DF25CE25DB251F
:10008000052605260526672307634236B79BD8A7B2
:100090001A39685618AEBAAB558C1D3CB7CC5763AD
:1000A000BD6DEDFD753EF6177231BF000000803F5B
:1000B00008000000BE922449123EABAAAA2ABECD77
:1000C000CCCC4C3E00000080BEABAAAAAA3E0000E9
:1000D0000000BF000000803F0000000000084178E1
:1000E000D3BB4387D1133D190E3CC3BD4282AD2B18
:1000F0003E68EC8276BED98FE1A93E4C80EFFFBE10
:1001000001C4FF7F3F000000000000000008000263
:1001100001000003040700000000000000000102CD
:100120000408102040800102040810200102040885
:100130001020040404040404040402020202020263
:1001400003030303030300000000250028002B0025
:1001500002001D3A2774694E53E8F5D2CF9C81A660
:10016000BBCDD0F7EAB9A4839E25381F02514C6B52
:1001700076879ABDA0F3EEC9D46F7255481B06214D
:100180003C4A57706D3E230419A2BF9885D6CBEC2C
:10019000F1130E2934677A5D40FBE6C1DC8F92B51E
:1001A000A8DEC3E4F9AAB7908D362B0C11425F7814
:1001B000659489AEB3E0FDDAC77C61465B08153211
:1001C0002F5944637E2D30170AB1AC8B96C5D8FFEA
:1001D000E2263B1C01524F6875CED3F4E9BAA780E2
:1001E0009DEBF6D1CC9F82A5B8031E3924776A4DCA
:1001F00050A1BC9B86D5C8EFF24954736E3D2007D1
:100200001A6C71564B1805223F8499BEA3F0EDCAB3
:10021000D735280F12415C7B66DDC0E7FAA9B4939D
:100220008EF8E5C2DF8C91B6AB100D2A3764795E8B
:1002300043B2AF8895C6DBFCE15A47607D2E33148C
:10024000097F6245580B16312C978AADB0E3FED971
:10025000C4007902E107271A931A11241FBECFEFB9
:10026000D8E0DEBFCDBF12E0A0E0B1E0E4ECFAE5FB
:1002700002C005900D92AC37B107D9F725E0ACE785
:10028000B2E001C01D92A532B207E1F711E0CDE264
:10029000D1E004C02197FE010E94C72BC932D107CB
:1002A000C9F70E948C270C94602DAACE8091AC02D5
:1002B00090E02091AD02821B910908959091AD02CA
:1002C0008091AC02981750F4E92FF0E0E255FD4F11
:1002D000208130E09F5F9093AD0202C02FEF3FEF8F
:1002E000C9010895E091AD028091AC02E81730F4A5
:1002F000F0E0E255FD4F808190E008958FEF9FEF91
:1003000008950895CF92DF92EF92FF920F931F937B
:10031000CF93DF937C01262F972F8A01809188024B
:10032000882391F0C62FD72F6E01C40ED51ECC1591
:10033000DD0569F06991D701ED91FC910190F081A3
:10034000E02DC7010995F3CF642F822F91D1C80109
:10035000DF91CF911F910F91FF90EF90DF90CF90A1
:100360000895CF93DF931F92CDB7DEB769832091B5
:1003700088022223D1F020918902203240F021E02E
:1003800030E0FC013383228380E090E014C0809150
:100390008A02E82FF0E0E557FD4F998190838F5F47
:1003A00080938A028093890204C061E0CE010196A5
:1003B0005FD181E090E00F90DF91CF910895FC0133
:1003C0001382128288EE93E0A0E0B0E084839583EC
:1003D000A683B78387E791E0918380830895109285
:1003E000AD021092AC0210928A021092890284C06F
:1003F00081E0809388026093AB0210928A0210928F
:1004000089020895F5CF0F93062F21E040918902CC
:100410006BE872E08091AB02D5D010928A02109204
:100420008902109288020F9108954F925F926F9205
:100430007F92AF92BF92CF92EF92FF920F931F9352
:10044000CF93DF935C01F62ED42F28013901EE20E3
:1004500011F1CEDFCE2DC43008F0C3E0C150C0F0A2
:10046000D501ED91FC91B8E0CB9FC0011124A3010F
:10047000920104C056954795379527958A95D2F7EE
:10048000CA01B9010190F081E02DC5010995E6CFBF
:1004900060E0C501B8DF4D2FD13208F040E22C2DCD
:1004A0006EEA72E08F2D46D01092AD028093AC02BE
:1004B000DF91CF911F910F91FF90EF90CF90BF9060
:1004C000AF907F906F905F904F900895CF92EF9292
:1004D0000F931F93C22EE12C00E010E09801A5DFDE
:1004E0001F910F91EF90CF90089521E0EFCF61E041
:1004F0008ACF8CE792E063CF10923B0381E0809338
:1005000039031092380361E082E10E94861861E0AD
:1005100083E10E948618E9EBF0E080818E7F808382
:1005200080818D7F808388E48093B80085E4809308
:10053000BC000895413208F043C090913B039111F3
:10054000FCCF91E090933B03209339032FEF20934E
:10055000CE0210921303240F2093120390933A03B8
:1005600090913A03880F892B80933A038091380346
:10057000813061F41092380380913A038093BB007C
:100580008091BC0083FDF8CF85EC01C085EE80939F
:10059000BC0080913B038130E1F380911303841709
:1005A00010F44091130324E133E0FB01D9018A2FB9
:1005B000821B841718F48D918193F9CF842F0895AD
:1005C00080E008950F93413208F04AC090913B03B8
:1005D0009111FCCF32E030933B03009339033FEF9E
:1005E0003093CE021092130340931203FB0164E197
:1005F00073E0DB013A2F361B341718F431913D9329
:10060000F9CF10923A0330913A03880F832B8093ED
:100610003A0380913803813061F41092380380915D
:100620003A038093BB008091BC0083FDF8CF85EC3A
:1006300001C085EE8093BC00222321F080913B0312
:100640008230D1F38091CE028F3F79F08091CE023B
:10065000803241F08091CE02803331F094E005C0C9
:1006600091E003C092E001C093E0892F0F910895BB
:100670004091F002262F30E0240F311D2132310548
:10068000DCF420913B032430C9F4FC0180E090E0CD
:10069000861758F43091F0022191DC01AE50BD4F25
:1006A000A30FB11D2C930196F3CF8091F002680F38
:1006B0006093F00280E0089581E0089582E008955B
:1006C00085ED8093BC008091BC0084FDFCCF10922E
:1006D0003B03089585EC8093BC0010923B03089582
:1006E0001F920F920FB60F9211242F933F934F93A7
:1006F0005F936F937F938F939F93AF93BF93EF938A
:10070000FF938091B900887F803609F49DC070F511
:10071000883209F45CC090F4803109F455C038F493
:10072000882309F4F3C0883009F44EC0F2C0883140
:1007300009F44DC0803209F45EC0EBC0803409F486
:1007400069C050F4803309F456C0883309F0E1C021
:100750008093CE02BFDFDDC0803509F44FC08835FD
:1007600009F45DC0883409F0D4C0D2C0883909F4D6
:10077000C3C0A8F4883709F467C038F4883609F490
:1007800063C0803709F460C0C4C0883809F4B4C0BD
:10079000803909F45FC0803809F0BBC05BC0803B82
:1007A00009F482C038F4803A09F466C0883A09F442
:1007B0007BC0AFC0803C09F4A3C0883C09F4A0C052
:1007C000883B09F486C0A5C080913A0310C090917F
:1007D000130380911203981770F5E091130381E0E1
:1007E0008E0F80931303F0E0EC5EFC4F80818093CA
:1007F000BB0085EC82C08093CE028AC0E0911303D7
:1008000081E08E0F809313038091BB00F0E0EC5EDB
:10081000FC4F808390911303809112036AC0E09192
:10082000130381E08E0F809313038091BB00F0E0EF
:10083000EC5EFC4F808380913903811169C081E0B7
:100840008093380384EA5DC083E080933B03109279
:10085000CF02CFCF8091CF02803208F04DC0E0911F
:10086000CF0281E08E0F8093CF028091BB00F0E039
:10087000E053FD4F8083BDCF2DDF8091CF028032CA
:1008800030F4E091CF02F0E0E053FD4F1082609130
:10089000CF0270E0E0913403F091350380ED92E0F7
:1008A00009951092CF0235C084E080933B031092EB
:1008B000F1021092F002E0913603F09137030995AE
:1008C0008091F002811105C081E08093F0021092C6
:1008D000F202E091F10281E08E0F8093F102F0E0EC
:1008E000EE50FD4F80818093BB009091F10280918A
:1008F000F002981708F47DCF85E88093BC0009C00A
:1009000085EC8093BC0010923B0303C01092CE0292
:10091000D7DEFF91EF91BF91AF919F918F917F9122
:100920006F915F914F913F912F910F900FBE0F905C
:100930001F9018950895CF92DF92EF92FF920F9338
:100940001F93FC01858996899A01AB01281B390BFD
:1009500041095109A389B4890E94CD2B6B017C0107
:100960008FE0F594E794D794C7948A95D1F765857D
:100970007685CB01770FAA0BBB0BBC01CD012BE019
:10098000660F771F881F991F2A95D1F72785308911
:100990008901330F220B330BA90198012C0D3D1D4A
:1009A0004E1D5F1D0E94AB2BC701B601620F731F66
:1009B000841F951F1F910F91FF90EF90DF90CF90B4
:1009C00008951F93CF93DF931F92CDB7DEB7162FF5
:1009D00067E770E08CE792E0498314DD612F8CE7D4
:1009E00092E0BFDC4981642F8CE792E0BADC8CE7AF
:1009F00092E00F90DF91CF911F9179CDCF93C62FC9
:100A000067E770E08CE792E0FDDC6C2F8CE792E00A
:100A1000A8DC8CE792E06BDD67E770E08CE792E0A2
:100A2000F1DC41E050E067E770E08CE792E05DDDEB
:100A30008CE792E043DCC82F8CE792E058DD8C2FE6
:100A4000CF910895CF93DF93C62F67E770E08CE7CF
:100A500092E0D8DC6C2F8CE792E083DC8CE792E0AC
:100A600046DD67E770E08CE792E0CCDC42E050E0E6
:100A700067E770E08CE792E038DD8CE792E01EDCFF
:100A8000D82F80E0C82F8CE792E018DCC82BD92B38
:100A90008CE792E02CDDCE01DF91CF910895CF93CA
:100AA000DF93EC01643008F063E068838CE792E048
:100AB00096DC60EDCE01A2DF853509F039C06AEA27
:100AC000CE01C0DF9A8389836CEACE01BBDF9C83B1
:100AD0008B836EEACE01B6DF9E838D8360EBCE0101
:100AE000B1DF9A8B898B62EBCE01ACDF9C8B8B8B59
:100AF00064EBCE01A7DF9E8B8D8B66EBCE01A2DF70
:100B000098878F8368EBCE019DDF9A8789876AEB90
:100B1000CE0198DF9C878B876CEBCE0193DF9E879D
:100B20008D876EEBCE018EDF988B8F8781E001C0C1
:100B300080E0DF91CF910895CF93DF93EC014EE2F7
:100B400064EF3FDF65E070E080E090E00E94E9172D
:100B500066EFCE01DF91CF9175CFCF93DF93EC019C
:100B6000EBDFAC0160E070E0CE01E5DEDC01CB0143
:100B70000896A11DB11DBC01CD0124E09595879576
:100B8000779567952A95D1F70E94EB2820E030E011
:100B900040E251E40E948128DF91CF910895CF92E5
:100BA000DF92EF92FF92CF93DF93EC014881429561
:100BB000440F440F407C4C5C64EF03DF888181115B
:100BC00005C065E070E080E090E012C0813029F45B
:100BD00068E070E080E090E00BC0823029F46EE0C5
:100BE00070E080E090E004C06AE170E080E090E0B6
:100BF0000E94E91766EFCE0125DF6C01E12CF12C94
:100C0000FE2CED2CDC2CCC2468EFCE01F7DEA70106
:100C10009601282BDA01C901488128E030E0241B25
:100C20003109BC01CD0104C09695879577956795EC
:100C30002A95D2F7DF91CF91FF90EF90DF90CF9080
:100C400008952F923F924F925F926F927F928F9270
:100C50009F92AF92BF92CF92DF92EF92FF921F933B
:100C6000CF93DF93CDB7DEB72C970FB6F894DEBFE6
:100C70000FBECDBF1C0160DF7C01C10190DF698325
:100C80007A838B839C83A70160E070E0C10153DE0F
:100C90006B017C0120EAC21A2FE0D20AE108F108B8
:100CA000A7019601C701B6010E94672B2B013C01E9
:100CB000FCE07594679457944794FA95D1F7D10165
:100CC00011960D90BC91A02DBE83AD83F1011081D2
:100CD000A581B6810E94D72B4B015C01ADE0B59494
:100CE000A79497948794AA95D1F7A781B085A3017B
:100CF00092010E94D72BBB2797FDB095AB2F880D93
:100D0000991DAA1DBB1D0296A11DB11D22E0B5951E
:100D1000A795979587952A95D1F79C01AD013058F5
:100D20004F4F5F4FA189B2890E94CD2B4B015C01CF
:100D30003FE0B694A794979487943A95D1F7ED81C4
:100D4000FE81CF01FF0FAA0BBB0B9C01AD0162E03E
:100D5000220F331F441F551F6A95D1F72D833E8301
:100D60004F835887F101A185B285A30192010E94AA
:100D7000D72B2B013C017BE07594679457944794E3
:100D80007A95D1F7A381B481A70196010E94D72B50
:100D9000DC01CB01EBE0B595A79597958795EA9592
:100DA000D1F7840D951DA61DB71D2D813E814F8164
:100DB0005885820F931FA41FB51F012E04C0880FF2
:100DC000991FAA1FBB1F0A94D2F7BC01CD016E5F09
:100DD0007F4F8F4F9F4F24E030E040E050E00E9473
:100DE000AB2B89819A81AB81BC81821B930BA40BB5
:100DF000B50B9C01AD0180E593ECA0E0B0E0BC0137
:100E0000CD0104C096958795779567951A95D2F789
:100E10000E94672B97FD0BC0660F771F881F991FD5
:100E2000A50194010E94892B69017A010AC0A501DC
:100E300094010E94892B69017A01CC0CDD1CEE1C07
:100E4000FF1C9927F7FC9A958F2D7E2D6D2D9B0108
:100E5000AC010E94672B9B01AC01AEEDBBE00E9490
:100E6000CD2B4C01BB2497FCB094AB2CA3E4B3EE88
:100E7000A70196010E94D92BBB2797FDB095AB2FF8
:100E8000880D991DAA1DBB1D8153914FAF4FBF4FB8
:100E900044E0B595A795979587954A95D1F7BC01FC
:100EA000CD016C0D7D1D8E1D9F1D2C960FB6F894E7
:100EB000DEBF0FBECDBFDF91CF911F91FF90EF90AE
:100EC000DF90CF90BF90AF909F908F907F906F906A
:100ED0005F904F903F902F900895CF93DF9300D075
:100EE00000D0CDB7DEB79A01AB0129833A834B839B
:100EF0005C83A7DE0E94EB2829813A814B815C81CB
:100F00000E94812821E03EED42E45EE30E94022A35
:100F10009B01AC0160E070E080E89FE30E9418282C
:100F200020E03AE24DE257E40E949F290F900F9093
:100F30000F900F90DF91CF910895CF93DF93CDB7AE
:100F4000DEB767970FB6F894DEBF0FBECDBFCE01F8
:100F50000196F0DC87E1FE013196ACE3B3E001904D
:100F60000D928A95E1F763E08CE393E098DD679654
:100F70000FB6F894DEBF0FBECDBFDF91CF910895BD
:100F8000CF93DF93EC018CE393E05BDE0E94EB28D0
:100F9000688379838A839B838CE393E0DEDD6C83B3
:100FA0007D838E839F83488559856A857B858CE305
:100FB00093E093DF688779878A879B87DF91CF915A
:100FC00008958CE393E0B6CC8F929F92AF92BF923C
:100FD000CF92DF92EF92FF92CF93DF93CDB7DEB740
:100FE0002C970FB6F894DEBF0FBECDBFC090660140
:100FF000D0906701E0906801F0906901A701960127
:1010000060911D0570911E0580911F05909120052E
:101010000E947D28882341F0C0921D05D0921E05B4
:10102000E0921F05F0922005CE010196A9DF89818B
:101030009A81AB81BC8180930B0590930C05A093A2
:101040000D05B0930E058D819E81AF81B88580938B
:101050000F0590931005A0931105B0931205898593
:101060009A85AB85BC858093130590931405A09356
:101070001505B093160581E090E00E94D9164091C5
:10108000FA045091FB046091FC047091FD0480E02F
:1010900090E00E94D5168090060590900705A090DC
:1010A0000805B090090520E030E040E85FEBC5019D
:1010B000B4010E947D28882331F1C090FA04D090B9
:1010C000FB04E090FC04F090FD04A7019601C5012B
:1010D000B4010E9418284B015C0120E030E040E0A0
:1010E00054E3C701B6010E949F299B01AC01C501D1
:1010F000B4010E949B29181634F083E891E0909384
:10110000E5048093E40480910A05882331F083E8A4
:1011100091E09093E5048093E4048091FE04909123
:10112000FF04A0910005B0910105BC01CD016F5FE6
:101130007F4F8F4F9F4F6093FE047093FF04809307
:101140000005909301050E94E92820910205309145
:10115000030540910405509105050E949F29609365
:10116000FA047093FB048093FC049093FD042C9686
:101170000FB6F894DEBF0FBECDBFDF91CF91FF90C9
:10118000EF90DF90CF90BF90AF909F908F90089599
:101190000F931F93CF93DF93E4EEF4E087E2DF0138
:1011A0001D928A95E9F780E090E0A0E8BFEB82A36A
:1011B00093A3A4A3B5A38DEC9CECACE4BEE3868F13
:1011C000978FA0A3B1A38AE693EBA5E5B3E384834D
:1011D0009583A683B78382E595E0AFE4B7E880877F
:1011E0009187A287B3878AE094E1A8E3B3E4848778
:1011F0009587A687B78781E39EE1A0E3B8E5808B5A
:10120000918BA28BB38BABE6B3E0B383A283C7E62B
:10121000D3E01196DC93CE9388E192E099838883A2
:101220009B838A8388EF94E015969C938E93149702
:1012300088EE94E013969C938E9312978AEF94E035
:1012400017969C938E9316978CE0ABE0B5E0ED017A
:1012500019928A95E9F707E115E08AE0D8011D9215
:101260008A95E9F7A3E5B3E084E1ED0119928A9547
:10127000E9F7B58BA48B8FE090E011969C938E9349
:1012800088E491E013969C938E9312978AE291E002
:1012900015969C938E93149786E191E017969C93F4
:1012A0008E9316978AE091E019969C938E931897E7
:1012B0008091660190916701A0916801B0916901E8
:1012C000F80186839783A087B18781E090E0A0E052
:1012D000B0E0E80181839283A383B4832EDE81E0B2
:1012E0008D83DF91CF911F910F9108958091170504
:1012F000811103C081E0809317050895EF92FF925A
:101300000F931F93CF93DF93DC01EA01F901149649
:101310008D919C91159712960D911C911397080F22
:10132000191F2881398118964D915C9119974217A0
:10133000530728F04D915C911197452B39F17801B5
:10134000E21AF30A18964D915C911997481B590BB4
:101350004E0D5F1D4617570794F1A901460F571F01
:1013600040175107E0F0F182E082338322836E1947
:101370007F0975836483161617061CF4382F292FEE
:1013800002C030E020E03683278313C018968D9189
:101390009C911997821B930B8617970784F0718392
:1013A0006083338322831582148217821682888198
:1013B0009981680F791F7983688380E001C081E09B
:1013C000DF91CF911F910F91FF90EF900895CF92F1
:1013D000DF92EF92FF92CF93DF936B017C0184E465
:1013E0008C9DE0018D9DD00D1124C958DC4F8AA938
:1013F0009BA9009721F00E94AF2C1BAA1AAA84E493
:101400008C9DF0018D9DF00D1124E958FC4F86A9AB
:1014100097A9009711F00E94AF2C84E48C9DF001F5
:101420008D9DF00D1124E958FC4F138A128A168AFB
:10143000178A108E118E128E138E148E158E168EA4
:10144000178E10A211A281E090E093A382A315A2AF
:1014500014A216A217A210A611A613A612A615A6CC
:1014600014A616A617A610AA11AA13AA12AA15AA9C
:1014700014AA17AA16AA11AE10AE12AE13AE14AE6D
:1014800015AEDF01DE961D921D921D921C921397E0
:10149000EE5BFF4F11821082DF91CF91FF90EF90B2
:1014A000DF90CF9008950F931F93CF93DF93EB01BD
:1014B000DC018D919C91FC01A681B781E881F981C5
:1014C00023E0EE0FFF1F2A95E1F712962D913C9134
:1014D0001397E20FF31F00811181AC85BD859D013B
:1014E000220F331FDC0112968D919C911397D90125
:1014F000A80FB91F8D919C9124813581232B19F45C
:1015000061E070E002C062E070E0689F9001699F56
:10151000300D789F300D112488859985289FB00162
:10152000299F700D389F700D1124EC81FD812E9F35
:10153000C0012F9F900D3E9F900D1124800F911F91
:10154000FA019183808373836283DF91CF911F912E
:101550000F9108952F923F924F925F926F927F92D8
:101560008F929F92AF92BF92CF92DF92EF92FF92B3
:101570000F931F93CF93DF9300D000D000D0CDB74F
:10158000DEB7DC011496ED91FC9115970190F08186
:10159000E02D808591859A838983A281B381BC8364
:1015A000AB83FB0181909190A190B1908F01C12CF0
:1015B000D12C7601C814D904EA04FB040CF05FC0F6
:1015C000D80114964D905D906D907C901797189669
:1015D0004D915D916D917C911B97F8017096FE8302
:1015E000ED83F801A081B18183E0AA0FBB1F8A952A
:1015F000E1F7E981FA8182819381A80FB91F2D90CB
:101600003C901197F80124853585220F331F8B817B
:101610009C81280F391FF9010081118114968D9149
:101620009C911597892B19F481E090E002C082E02B
:1016300090E0809F9001819F300D909F300D11248C
:10164000249F8001259F100D349F100D1124249D8F
:10165000C001259D900D349D900D1124A8016D8130
:101660007E81820D931D0E94472D8D819E81080FE2
:10167000191F9FEFC91AD90AE90AF90A9BCF2696C2
:101680000FB6F894DEBF0FBECDBFDF91CF911F9193
:101690000F91FF90EF90DF90CF90BF90AF909F9011
:1016A0008F907F906F905F904F903F902F90089514
:1016B000CF93DF93DB01A659BE4F2C91222369F013
:1016C00024E4269FF001279FF00D1124E958FC4FD8
:1016D000EF0119922A95E9F71C9224E4269FF00164
:1016E000279FF00D1124E958FC4F148215821682B1
:1016F00017821186108613861286118A108A178621
:101700001686DF91CF9163CE2F923F924F925F92D8
:101710006F927F928F929F92AF92BF92CF92DF9201
:10172000EF92FF920F931F93CF93DF93CDB7DEB766
:1017300028970FB6F894DEBF0FBECDBF6B017C01BA
:101740001A0184E48C9D90018D9D300D112429583F
:101750003C4FF90184819581A681B781892B8A2B21
:101760008B2B09F4B8C0A12CB12C412C512C320187
:1017700038872F83C90104969A838983D9011896E3
:10178000BC83AB83E981FA8180819181A281B3819D
:10179000481659066A067B0694F5AB81BC81ED912B
:1017A000FC91EA0DFB1D228133818901812C912C52
:1017B00082149304C4F4D801ED91FC91309769F040
:1017C000848195812D833E830E94AF2CF801808116
:1017D00091810E94AF2C3E812D81FFEF8F1A9F0ACD
:1017E0000E5F1F4FE5CFC9010E94AF2C8FEF481A43
:1017F000580A680A780A94E0A90EB11CC3CFAF81D9
:10180000B88518968D919C9119970E94AF2CEF8105
:10181000F88582859385892B59F1A12CB12C812CD7
:10182000912C84E48C9D80018D9D100D11240F5707
:101830001C4F8214930484F4D801ED91FC91EA0DBD
:10184000FB1D848195810E94AF2CBFEF8B1A9B0AF0
:10185000EEE0AE0EB11CEDCF84E48C9DF0018D9DC9
:10186000F00D1124E958FC4F828593850E94AF2C1E
:1018700084E48C9D90018D9D300D112489010958BF
:101880001C4FD80150968D919C9151970E94AF2C7E
:10189000F801868597850E94AF2CC701B60197DDB8
:1018A000C701B60128960FB6F894DEBF0FBECDBFB4
:1018B000DF91CF911F910F91FF90EF90DF90CF902C
:1018C000BF90AF909F908F907F906F905F904F9060
:1018D0003F902F90EDCE28960FB6F894DEBF0FBE46
:1018E000CDBFDF91CF911F910F91FF90EF90DF90CF
:1018F000CF90BF90AF909F908F907F906F905F90B0
:101900004F903F902F90089524E4269FF001279F49
:10191000F00D1124E958FC4F8289938904970297AE
:1019200058F485E090E0938B828B8FEF9FEFDC0182
:10193000828F938FA48FB58F08952F923F924F92ED
:101940005F926F927F928F929F92AF92BF92CF924F
:10195000DF92EF92FF920F931F93CF93DF93CDB758
:10196000DEB7E0970FB6F894DEBF0FBECDBF9AA3E7
:1019700089A31B016A012801390184E4849D800147
:10198000859D100D1124980129583C4F7901D901EA
:101990004D925D926D927C921397AB01C301B2019F
:1019A000B3DEF801E558FC4FD6014D915D916D9184
:1019B0007D918D01CA01408351836283738364E00A
:1019C00070E00E94002CF70191878087892B09F431
:1019D0009FC11E8E1D8E198E1A8E1B8E1C8EF8A214
:1019E000EF8E97012C5F3F4F38A72FA32C5F3F4FFF
:1019F0003AA729A7EFA1F8A580819181A281B3819F
:101A0000298D3A8D4B8D5C8D281739074A075B0766
:101A10000CF0E7C0A9A5BAA58D919C912D8D3E8DA6
:101A2000280F391F3A8B298BD801ED91FC91EE0FCD
:101A3000FF1FA9A1BAA18D919C91E80FF91F808188
:101A40009181F90191838083D80114962D913D9164
:101A50004D915C9117972BA33CA34DA35EA3085F08
:101A60001F4F62E070E0C1010E94002CE989FA89F1
:101A700093838283892B09F44BC11D8A1E8A1F8A96
:101A8000188E2D893E894F89588D8BA19CA1ADA1BF
:101A9000BEA1281739074A075B070CF08FC0D80191
:101AA000ED90FC90EE0CFF1CE989FA89C280D3808E
:101AB000CE0CDF1C68E070E081E090E00E94002C1A
:101AC000D6018D939C93E989FA8982819381FC01E7
:101AD000EE0DFF1DC080D180C114D10409F418C1DE
:101AE000F80184819581A681B781F6018083918375
:101AF000A283B383085F1F4F181619061A061B0628
:101B000034F01C8A1B8A812C912C54010CC064E097
:101B100070E00E94002CD60115969C938E9314972A
:101B2000892B79F7F5C0F60180819181A281B3817B
:101B300088169906AA06BB06A4F5F601E480F5808E
:101B40002B893C89E20EF31EF801DE01119680E13B
:101B500001900D928A95E1F7005F1F4FA701BE012A
:101B60006F5F7F4FA9A1BAA114968D919C91159793
:101B70009ADCF60126813781D70112968D919C91CE
:101B80001397820F931F97838683BFEF8B1A9B0A4D
:101B9000AB0ABB0A2B893C892C5F3F4F3C8B2B8BBC
:101BA000C2CF2D893E894F89588D2F5F3F4F4F4FB0
:101BB0005F4F2D8B3E8B4F8B588F63CF298D3A8D86
:101BC0004B8D5C8D2F5F3F4F4F4F5F4F298F3A8F6B
:101BD0004B8F5C8F2D8D3E8D2C5F3F4F3E8F2D8F19
:101BE00009CF6EE070E0C1010E94002CAF8DB8A15A
:101BF0001B969C938E931A97812C912CA12CB12C1F
:101C0000C12CD12C24E4249DC001259D900D1124CC
:101C10009C012F573C4F3A8B298B21E030E0A214D6
:101C2000B3040CF04DC0D8014D915D916D917D9143
:101C30008D01E989FA89E080F180E80CF91C77FDD3
:101C400067C0D70111963C932E934115510561054C
:101C50007105A9F0CA012FA738AB4BA75CA76DA7E8
:101C60007EA70E941A2CF701958384832FA538A99B
:101C70004BA55CA56DA57EA5892B31F449C0D70184
:101C800015961C921E921497F70153834283848108
:101C9000958197838683918780871386128681E05A
:101CA00090E0452B462B472B11F480E090E0C80EC6
:101CB000D91EFFEFAF1ABF0A4EE0840E911CAFCFC2
:101CC00084E4849D8001859D100D112409581C4FCA
:101CD000D8011D961C921E921C97C60133E0880FF6
:101CE000991F3A95E1F70E941A2CF801918B808B8D
:101CF000892B71F0C601880F991F0E941A2CD801F8
:101D00001F969C938E931E97892B11F080E005C03F
:101D1000A101C301B201F8DC81E0E0960FB6F894AE
:101D2000DEBF0FBECDBFDF91CF911F910F91FF900E
:101D3000EF90DF90CF90BF90AF909F908F907F906B
:101D40006F905F904F903F902F9008952F923F9209
:101D50004F925F926F927F928F929F92AF92BF92BB
:101D6000CF92DF92EF92FF920F931F93CF93DF9367
:101D7000CDB7DEB768970FB6F894DEBF0FBECDBF04
:101D80009C8B8B8BDB0149015A0124E4289DC00107
:101D9000299D900D11249C0129583C4F79012D91CA
:101DA0003C911197F701358B248BFC01E357FC4FD5
:101DB00014964D915D916D917C911797408351835D
:101DC00062837383FC01EF56FC4F18964D915D9131
:101DD0006D917C911B974083518362837383FC01D7
:101DE000EB56FC4F1C964D915D916D917C911F9728
:101DF0004083518362837383FC01EB55FC4F509603
:101E00005C91509751964C91519752963C915297B4
:101E100053962C91539750834183328323838D01B2
:101E20000C5E1F4F852F942F181619060CF068C0F2
:101E3000880F991F880F991F0E941A2CD701D396DB
:101E40009C938E93D297892B09F4BCC0212C312C02
:101E5000412C512C32019701225D3F4F3E8B2D8B3F
:101E60002C5F3F4F388F2F8B2E5F3F4F3A8B298B44
:101E7000B301A2012FEF421A520A620A720AED89D7
:101E8000FE8980819181A281B381481759076A0731
:101E90007B074CF5AF89B88DCD90DC90C20CD31C7C
:101EA000F801DE01119680E101900D928A95E1F72B
:101EB000005F1F4FA601BE016F5F7F4FEB89FC895A
:101EC00084819581F0DAA989BA898D919C911197C5
:101ED000F60122813381820F931F8D939C93F4E04E
:101EE0002F0E311CC5CFD701D4968D919C91D597DB
:101EF0000E941A2CF70197AB86AB892B09F462C0BC
:101F0000F80180819181A281B38124E4289DF001B0
:101F1000299DF00D1124E958FC4FAC01BD014D7F06
:101F200021E030E0452B462B472B11F020E030E03C
:101F300033A322A324E4289DF001299DF00D112450
:101F4000E958FC4F0197A109B10921E030E002975F
:101F5000A105B10510F020E030E035A324A384E40E
:101F6000889DF001899DF00D1124CF0183569C4F6F
:101F7000D80114964D915D916D917C911797DC017C
:101F80004D935D936D937C931397E958FC4F868D29
:101F9000978DA0A1B1A1B7FF10C0B095A095909565
:101FA00081959F4FAF4FBF4F82AF93AFA4AFB5AFF7
:101FB000168E178E10A211A20AC012AE13AE14AE66
:101FC00015AE05C0C501B40102DA81E001C080E0B0
:101FD00068960FB6F894DEBF0FBECDBFDF91CF91EC
:101FE0001F910F91FF90EF90DF90CF90BF90AF9037
:101FF0009F908F907F906F905F904F903F902F9029
:102000000895CF92DF92EF92FF92CF93DF931092D9
:10201000FF0324E4269FF001279FF00D1124E958C7
:10202000FC4F15A614A620E030E0C12CD12CDF0116
:102030001A96C1E0D0E0C416D506D4F4ED91FC9117
:102040001197E20FF31FE280F3801E141F0454F473
:10205000E480F580F782E682F186E08613861286B8
:10206000D183C083EFEFCE1ADE0A225F3F4FE3CF6A
:1020700024E4269FF001279FF00D1124E958FC4F1E
:1020800013A612A611AE10AEDF01DE961D921D92B0
:102090001D921C92139782E090E0938B828BDF91CC
:1020A000CF91FF90EF90DF90CF90089524E4269F8A
:1020B000F001279FF00D1124E958FC4F138A128A72
:1020C00023CB24E4269FF001279FF00D1124E9582B
:1020D000FC4F8289938981309105C8F08530910544
:1020E00018F0059769F008958FEF9FEFDC01828F5C
:1020F000938FA48FB58F85E090E0938B828B0895AA
:102100008FEF9FEFDC01828F938FA48FB58F08959F
:1021100024E4249FF001259FF00D1124E958FC4F81
:102120002EE0AC01249FC001259F900D1124028454
:10213000F385E02DE80FF91F81E08093FF0382858E
:10214000938591878087408551852681378181E0FD
:1021500090E04217530711F080E090E09183808374
:1021600008952F923F924F925F926F927F928F923B
:102170009F92AF92BF92CF92DF92EF92FF920F9316
:102180001F93CF93DF93CDB7DEB7C255D1090FB6FA
:10219000F894DEBF0FBECDBF21969FAF8EAF2197C3
:1021A0004BA75CA76DA77EA74801590184E4889DD1
:1021B0008001899D100D1124F801E958FC4F2285FA
:1021C000338527963FAF2EAF279782899389029751
:1021D00009F060C186A597A5A0A9B1A9892B8A2B72
:1021E0008B2B29F484E090E0938B828B53C18489FC
:1021F000958921964EAD5FAD21974817590709F093
:1022000049C186A997A99AAB89AB1EAE1DAE19AE7E
:102210001AAE1BAE1CAE8F01DF019E962996BFAF92
:10222000AEAF2997F2962B96FFAFEEAF2B979801A2
:10223000285C3F4F2D963FAF2EAF2D97A8014A5DEA
:102240005F4F2F965FAF4EAF2F97C8018296619672
:102250009FAF8EAF61971A976396BFAFAEAF63978C
:102260002996EEADFFAD299780819181A281B3813E
:1022700029AD3AAD4BAD5CAD281739074A075B076E
:102280000CF0E7C02B96EEADFFAD2B9780819181CE
:102290002DAD3EAD280F391F3EAB2DABD9011296A7
:1022A0000D90BC91A02D2396BFAFAEAF2397B695EE
:1022B000A795B695A7952596BFAFAEAF25972D9656
:1022C000EEADFFAD2D9780819181892B09F496C0E9
:1022D0002F96AEADBFAD2F97CD90DD90ED90FC90D9
:1022E00029A83AA8F9010190F081E02DF8ABEFA7F9
:1022F00018AE1FAA8FA998AD2596AEADBFAD259794
:102300008A179B070CF07AC06196AEADBFAD61979E
:102310008D919C91892B69F1EFA5F8A9408051809E
:1023200062807380A7019601C301B2010E949B29BC
:1023300087FD0BC0A7019601D1016D917D918D9113
:102340009C910E947D2887FD8CC0A7019601C30146
:10235000B2010E949B29181664F4A7019601F101AD
:1023600060817181828193810E947D28882309F494
:1023700078C06396AEADBFAD63978D919C91892B6C
:1023800069F1EFA5F8A94080518062807380A701B0
:102390009601C301B2010E947D2887FF0BC0A701EF
:1023A0009601D1016D917D918D919C910E949B2907
:1023B00087FF57C0A7019601C301B2010E947D2883
:1023C00081110CC0A7019601F101608171818281A8
:1023D00093810E949B2918160CF443C02FA938AD95
:1023E0002F5F3F4F38AF2FAB34E0230E311C4FA58A
:1023F00058A94C5F5F4F58AB4FA77CCFEDA9FEA902
:102400006081718123964EAD5FAD239789A99AA90A
:102410000E94472D25968EAD9FAD2597880F991F59
:10242000880F991F29A93AA9280F391F3AAB29AB60
:1024300089AD9AADABADBCAD0196A11DB11D89AF03
:102440009AAFABAFBCAFADADBEAD1496BEAFADAF46
:1024500007CF81E090E0D801D9969C938E93D897CE
:1024600019C084E4889DF001899DF00D1124E9587C
:10247000FC4F868D978DA0A1B1A1892B8A2B8B2B28
:1024800009F064C284E090E0938B828B86AD97ADB7
:1024900093A782A784E4889DF001899DF00D112403
:1024A000E958FC4F828993898230910571F482AD9D
:1024B00093ADA4ADB5AD181619061A061B060CF09F
:1024C0004CC2CC24C394D12C05C0049709F045C25A
:1024D000C12CD12C8EE02196EEADFFAD21978E9FC1
:1024E00070018F9FF00C112427962EAD3FAD2797DA
:1024F000E20EF31ED70112964D915C911397411590
:10250000510509F42AC216968D919C9117979AA7A6
:1025100089A7FE01319684E1DF011D928A95E9F7D2
:10252000898A9A8AAB8ABC8AC114D10409F457C03B
:1025300084E4889DF001899DF00D1124E958FC4F39
:10254000DF01DE964D905D906D907C9082AD93ADF5
:10255000A4ADB5AD481659066A067B0609F03FC022
:10256000F701648175810084F185E02D8481958176
:10257000A681B7819C018D8B9E8BAF8BB88F285F16
:102580003F4F3E8B2D8BD70118968D919C911997BB
:10259000280F391F19963C932E93189718968D91F2
:1025A0009C911997460F571F841B950B97FD06C0EA
:1025B000860F971F19969C938E93189784E4889D95
:1025C000F001899DF00D1124EB54FC4FB1E04B1A42
:1025D00051086108710840825182628273829E01B3
:1025E0002B5E3F4FAE01475D5F4F64E170E0C70176
:1025F0000E947E09082F10E00115110509F091C114
:102600008CE090E0A0E0B0E08D839E83AF83B8873C
:102610009E01235E3F4FAE01475D5F4F64E070E077
:10262000C7010E947E09082F10E00115110509F06D
:1026300078C180E190E0A0E0B0E08D839E83AF831D
:10264000B8874D8D5E8DBE01655D7F4F8F8D98A1E2
:102650000E94472D8BA19CA1009761F06D8D7E8D0E
:10266000EBE2F0E0EC0FFD1F6E0F7F1F49A15AA1B6
:102670000E94472D1DA21EA21FA218A621962EADB4
:102680003FAD2197220F331F38AF2FAB24E4289D95
:10269000C001299D900D112489589C4FAC014C5FBD
:1026A0005F4F5AAF49AFDC011896BEAFADAF2DA159
:1026B0003EA14FA158A529AB3AAB4BAB5CABE9AD02
:1026C000FAAD80819181A281B381281739074A0729
:1026D0005B070CF0CFC0ADADBEADED91FC9189A90B
:1026E0009AA9880F991F880F991FE80FF91FA081D9
:1026F000B1818C91882309F4AFC0833009F4ACC058
:102700000280F381E02D2FA938ADE20FF31F408145
:10271000518158AB4FA7452B09F49EC089859A85F6
:10272000AB85BC850196A11DB11D89879A87AB87B2
:10273000BC879E01235E3F4FAE01475D5F4F64E063
:1027400070E0C7010E947E0990E0009709F0E8C0A0
:102750008D819E81AF81B8850496A11DB11D8D83A9
:102760009E83AF83B8874D8D5E8DBE016B5D7F4FBD
:102770008F8D98A10E94472D8BA19CA1009761F09D
:102780006D8D7E8DA5E2B0E0AC0FBD1F6A0F7B1F83
:1027900049A15AA10E94472D1EAA1DAA412C512CC5
:1027A0003201EFA5F8A980819181A281B3814816F9
:1027B00059066A067B060CF04FC0EFA5F8A92480E5
:1027C00035802DA93EA9220E331ED10112966D919E
:1027D0007C9113979E01235E3F4FAE01475D5F4F93
:1027E000C7010E947E0990E0009709F099C0F101AD
:1027F00082819381092E000CAA0BBB0B4D815E8157
:102800006F817885840F951FA61FB71F8D839E83C8
:10281000AF83B887608171814D8D5E8D8F8D98A15A
:102820000E94472D8BA19CA1009759F0D1016D9179
:102830007C912D8D3E8D620F731F49A15AA10E947C
:10284000472DBFEF4B1A5B0A6B0A7B0AEDA9FEA965
:102850003496FEABEDABA5CF49A85AA86BA87CA8CF
:10286000FFEF4F1A5F0A6F0A7F0A4DA25EA26FA2A6
:1028700078A61DCF89859A85AB85BC85892B8A2B47
:102880008B2B09F44EC08AE190E0A0E0B0E0898390
:102890009A83AB83BC8321962EAD3FAD2197C901AE
:1028A000330FAA0BBB0B8D879E87AF87B88B4D89E3
:1028B0005E89BE016F5F7F4F8F89988D0E94472D83
:1028C0008B8D9C8D009761F06D897E8941E050E091
:1028D0004C0F5D1F640F751F498D5A8D0E94472D47
:1028E00089A59AA5D70117969C938E931697119652
:1028F0001C921E92CD2889F184E4889DF001899D67
:10290000F00D1124EB54FC4F80819181A281B381A1
:102910000196A11DB11D80839183A283B3831DC045
:102920008C01CD28D1F4012BC1F084E4889DF00105
:10293000899DF00D1124E958FC4F81E090E095A7A6
:1029400084A785E090E0938B828B07C083E090E0C2
:10295000938B828B81E090E09BCDCE5ADF4F0FB6F8
:10296000F894DEBF0FBECDBFDF91CF911F910F91C5
:10297000FF90EF90DF90CF90BF90AF909F908F909F
:102980007F906F905F904F903F902F900895CF92DF
:10299000DF92EF92FF920F931F936B017C0184E40F
:1029A0008C9DF0018D9DF00D1124E958FC4F82891A
:1029B0009389009709F450C00197B9F482A593A5B3
:1029C0009C012F5F3F4F33A722A7092E000CAA0BB3
:1029D000BB0B028D138D248D358D80179107A207B7
:1029E000B307D1F5C701B6010CDB84E48C9DF0017F
:1029F0008D9DF00D1124E958FC4F8289938903972E
:102A000059F582A593A59C012F5F3F4F33A722A7BD
:102A1000092E000CAA0BBB0B468D578D60A171A12E
:102A200084179507A607B707BCF086AD97AD93A7A7
:102A300082A784E090E0938B828B82AD93ADA4ADAE
:102A4000B5AD181619061A061B0634F4EE5BFF4FD7
:102A500081E090E0918380831F910F91FF90EF9030
:102A6000DF90CF90089524E4269FF001279FF00D7A
:102A70001124E958FC4F828993890497B1F482A507
:102A800093A5019693A782A7092E000CAA0BBB0B56
:102A900046895789608D718D84179507A607B707FA
:102AA00021F485E090E0938B828B08952F923F92E2
:102AB0004F925F926F927F928F929F92AF92BF924E
:102AC000CF92DF92EF92FF920F931F93CF93DF93FA
:102AD000CDB7DEB72E970FB6F894DEBF0FBECDBFD1
:102AE00049835A836B837C834901442E552E24E409
:102AF000249DF001259DF00D1124E958FC4F2288FA
:102B0000338891012450310915861486223031050D
:102B100008F0DDC0DC0111961C921E9213961C92E7
:102B20001E921297A12CB12C60E070E09F01265FED
:102B30003F4F38872F837F013CE0E30EF11CDF011C
:102B40005096BA87A9879F01225F3F4F3C872B870A
:102B5000681579050CF06FC0EF81F885A081B1810F
:102B60009D012A0D3B1D3E872D87D9012D913C915A
:102B70001197232B09F059C018960D911C911997A4
:102B80001296ED91FC911397FE83ED8316962D918D
:102B90003C911797D7014D915C91DA01E3E0AA0FC0
:102BA000BB1FEA95E1F7E985FA85C080D180FD0178
:102BB000EC0DFD1D440F551FAB85BC85CD90DC9001
:102BC0004C0D5D1DDA016D937C93D7014D915C91A5
:102BD00011974F5F5F4F4D935C9313830283AD85D5
:102BE000BE851B963C932E931A970217130748F441
:102BF000201B310B318320831582148217821682A9
:102C000014C0AD85BE851496CD90DC9015974D818E
:102C10005E814C0D5D1D401B510B518340832C196F
:102C20003D0935832483D782C6826F5F7F4FBEE024
:102C3000AB0EB11C8DCF24E4249D8001259D100D89
:102C4000112409581C4FF80124853585DC011196A3
:102C50003C932E934089518913965C934E9312971F
:102C60004685578515965C934E931497232BA1F5B3
:102C7000B5E02B16310481F51092FF03828D938D00
:102C8000A48DB58DAE014F5F5F4F64E070E08F3F64
:102C90009F4FAF4FBF4F59F480E290E00E94691FF1
:102CA00069817A818B819C81A40100DA15C08FE152
:102CB00090E00E94691FD8019B961C921E929A97E1
:102CC00081E090E053969C938E93529705C0FC014F
:102CD00011821082138212822E960FB6F894DEBFF4
:102CE0000FBECDBFDF91CF911F910F91FF90EF905D
:102CF000DF90CF90BF90AF909F908F907F906F901C
:102D00005F904F903F902F900895EF92FF920F9316
:102D10001F93CF93DF937C018B01EA010E94EC1F8C
:102D2000811121C080916C0190916D01049711F186
:102D300083E090E090936D0180936C011BC09881BB
:102D40009111F0CF28ED38EB45E050E060E070E005
:102D5000CB010E947622AE01B801C7010E948422F5
:102D6000C8010E944F228091000490910104892B98
:102D700031F3D8CFDF91CF911F910F91FF90EF905A
:102D80000895CF93DF9320916C0130916D01243031
:102D9000310541F0EB010E948422CE01DF91CF91F9
:102DA0000C944F22DF91CF9108950C9496260C94A9
:102DB0008B260C9479260C945F220C941D26089582
:102DC00060E070E080E090E00C94C71F0895AF923F
:102DD000BF92CF92DF92EF92FF920F931F93CF9308
:102DE000DF9300D0CDB7DEB75C0169017A018B01BA
:102DF00080E090E0C114D104E104F104F1F0C114C9
:102E0000D10421E0E206F10410F4A60102C04FEF64
:102E10005FEF9E012F5F3F4FB801C5010E9436272B
:102E20008F3F2FEF920749F029813A81C21AD30AC6
:102E3000E108F108020F131FDDCF0F900F90DF9113
:102E4000CF911F910F91FF90EF90DF90CF90BF90A7
:102E5000AF900895089508951F920F920FB60F92A4
:102E600011242F933F934F935F936F937F938F938F
:102E70009F93AF93BF93EF93FF93E0916E01F09117
:102E80006F010995FF91EF91BF91AF919F918F9144
:102E90007F916F915F914F913F912F910F900FBE56
:102EA0000F901F9018951F920F920FB60F9211243A
:102EB0002F933F934F935F936F937F938F939F9342
:102EC000AF93BF93EF93FF93E0917001F091710185
:102ED0000995FF91EF91BF91AF919F918F917F9154
:102EE0006F915F914F913F912F910F900FBE0F9077
:102EF0001F9018951F920F920FB60F9211242F93C7
:102F00003F938F939F93AF93BF93809103049091CE
:102F10000404A0910504B09106043091020423E05A
:102F2000230F2D3720F40196A11DB11D05C026E801
:102F3000230F0296A11DB11D209302048093030468
:102F400090930404A0930504B093060480910704B1
:102F500090910804A0910904B0910A040196A11D62
:102F6000B11D8093070490930804A0930904B093C3
:102F70000A04BF91AF919F918F913F912F910F9034
:102F80000FBE0F901F9018953FB7F89480910704DB
:102F900090910804A0910904B0910A0426B5A89B59
:102FA00005C02F3F19F00196A11DB11D3FBFBA2FDB
:102FB000A92F982F8827820F911DA11DB11DBC013B
:102FC000CD0142E0660F771F881F991F4A95D1F700
:102FD00008958F929F92AF92BF92CF92DF92EF921D
:102FE000FF926B017C01D0DF4B015C01C114D10465
:102FF000E104F104F1F02EDFC7DFDC01CB01881919
:103000009909AA09BB09883E9340A105B10570F34F
:1030100021E0C21AD108E108F10888EE880E83E0A9
:10302000981EA11CB11CC114D104E104F10421F7C4
:10303000DDCFFF90EF90DF90CF90BF90AF909F904B
:103040008F900895789484B5826084BD84B5816042
:1030500084BD85B5826085BD85B5816085BDEEE6A0
:10306000F0E0808181608083E1E8F0E0108280817F
:1030700082608083808181608083E0E8F0E08081ED
:1030800081608083E1EBF0E0808184608083E0EB0D
:10309000F0E0808181608083EAE7F0E080818460F5
:1030A0008083808182608083808181608083808151
:1030B000806880831092C1000895833081F028F4E5
:1030C000813099F08230A1F008958730A9F08830DE
:1030D000B9F08430D1F4809180008F7D03C080915D
:1030E00080008F7780938000089584B58F7702C029
:1030F00084B58F7D84BD08958091B0008F7703C023
:103100008091B0008F7D8093B00008951F93CF937E
:10311000DF93282F30E0F901E65FFE4F8491F9013B
:10312000E25EFE4FD491F901EE5CFE4FC491CC23D8
:10313000C1F0162F8111C1DFEC2FF0E0EE0FFF1F61
:10314000EA5BFE4FA591B4918FB7F894111105C0B9
:103150009C91ED2FE095E92302C0EC91ED2BEC93CF
:103160008FBFDF91CF911F910895FC01918D228D2A
:10317000892F90E0805C9F4F821B91098F73992764
:103180000895FC01918D828D981731F0828DE80FA2
:10319000F11D858D90E008958FEF9FEF0895FC015C
:1031A000918D828D981761F0828DDF01A80FB11D7E
:1031B0005D968C91928D9F5F9F73928F90E00895A2
:1031C0008FEF9FEF0895FC01848DDF01A80FB11DE3
:1031D000A35ABF4F2C91848D90E001968F7399274D
:1031E000848FA689B7892C93A089B1898C9180643A
:1031F0008C93938D848D981306C00288F389E02DFB
:1032000080818F7D80830895CF93DF93EC01888D3B
:103210008823C1F0EA89FB89808185FD05C0A889E2
:10322000B9898C9186FD0EC00FB607FCF5CF808161
:1032300085FFF2CFA889B9898C9185FFEDCFCE01AA
:10324000C2DFE8CFDF91CF910895EF92FF920F9305
:103250001F93CF93DF93EC0181E0888F9B8D8C8D42
:10326000981305C0E889F989808185FD23C0F62E71
:103270000B8D10E00F5F1F4F0F731127E02E8C8D09
:10328000E8120BC00FB607FCFACFE889F9898081F4
:1032900085FFF5CFCE0197DFF2CF8B8DFE01E80FD2
:1032A000F11DE35AFF4FF0820B8FEA89FB89808181
:1032B000806207C0EE89FF896083E889F98980818F
:1032C0008064808381E090E0DF91CF911F910F9126
:1032D000FF90EF900895CF92DF92EF92FF921F93AD
:1032E000CF93DF93EC016A017B01122FE889F98902
:1032F00082E080834115514E61057105B1F060E0B7
:1033000079E08DE390E0A70196010E94892BDA0114
:10331000C9010197A109B109B695A7959795879518
:10332000AC01411580E15807A8F0E889F9891082BD
:1033300060E874E88EE190E0A70196010E94892B75
:10334000BA01A90141505109610971097695679542
:1033500057954795EC85FD855083EE85FF85408325
:10336000188EEC89FD891083EA89FB898081806150
:103370008083EA89FB89808188608083EA89FB8970
:10338000808180688083EA89FB8980818F7D80834A
:10339000DF91CF911F91FF90EF90DF90CF90089534
:1033A0001F920F920FB60F9211242F938F939F931A
:1033B000EF93FF93E0911B04F0911C048081E09156
:1033C0002104F091220482FD12C090818091240496
:1033D0008F5F8F7320912504821751F0E0912404B0
:1033E000F0E0E55FFB4F958F8093240401C080815E
:1033F000FF91EF919F918F912F910F900FBE0F90A2
:103400001F9018951F920F920FB60F9211242F93B1
:103410003F934F935F936F937F938F939F93AF935C
:10342000BF93EF93FF938BE094E0CDDEFF91EF919C
:10343000BF91AF919F918F917F916F915F914F91CC
:103440003F912F910F900FBE0F901F901895EBE0BA
:10345000F4E01382128288EE93E0A0E0B0E084836F
:103460009583A683B7838FE192E09183808385EC77
:1034700090E09587848784EC90E09787868780EC3E
:1034800090E0918B808B81EC90E0938B828B82EC2F
:1034900090E0958B848B86EC90E0978B868B118ED9
:1034A000128E138E148E08958F929F92AF92BF92B8
:1034B000CF92DF92EF92FF920F931F93CF93DF9300
:1034C0007C018B016C0182E0C80ED11C4701E5E054
:1034D0008E0E911CC0E0D0E0F60161916F014AE0D0
:1034E00050E0C801C6D05C016EE2C80167D08A0D09
:1034F0009B1DC80FD91FC814D90471F74AE050E0CA
:10350000F7016581C801B5D08C0F9D1FDF91CF9168
:103510001F910F91FF90EF90DF90CF90BF90AF90F1
:103520009F908F900895E8EAF4E08FE292E0918313
:10353000808312821382148215820895CF92DF92C3
:10354000EF92FF920F931F93CF93DF936C017A0159
:103550008B01C0E0D0E0CE15DF0589F0D8016D9178
:103560008D01D601ED91FC910190F081E02DC60115
:103570000995892B11F47E0102C02196ECCFC70179
:10358000DF91CF911F910F91FF90EF90DF90CF903F
:1035900008956115710579F0FB0101900020E9F7AC
:1035A0003197AF01461B570BDC01ED91FC91028076
:1035B000F381E02D099480E090E00895DC01ED9125
:1035C000FC910190F081E02D09944F925F926F92EF
:1035D0007F92EF92FF920F931F93CF93DF93CDB71C
:1035E000DEB7A1970FB6F894DEBF0FBECDBF7C014A
:1035F000FA01CB0119A2223008F42AE08E010F5DF6
:103600001F4F422E512C612C712CBF01A30192013E
:103610000E94892BF901CA01015011096A3014F482
:10362000605D01C0695CD8016C93232B242B252B92
:1036300061F7B801C701ADDFA1960FB6F894DEBF00
:103640000FBECDBFDF91CF911F910F91FF90EF90F3
:103650007F906F905F904F9008952115310541F450
:10366000DC01ED91FC910190F081E02D642F099433
:10367000ACCF9A01462F50E060E070E0EECF813091
:1036800039F018F0823051F0089510926E000895CC
:1036900080916F008D7F80936F00089580917000FE
:1036A0008D7F8093700081E08093B0008091B100A5
:1036B000887F84608093B1001092B3000895CF9307
:1036C000C82F809172018C1307C0E0E5F1E0E4910E
:1036D0008FEF8093720101C0EFEF8E2FD0DF60E09B
:1036E0008C2FCF9113CD1F920F920FB60F921124F2
:1036F0002F933F934F935F936F937F938F939F93FA
:10370000AF93BF93EF93FF938091B1049091B20474
:10371000A091B304B091B404892B8A2B8B2B51F167
:103720008091AE04E091AF04F091B00490818927BC
:1037300080838091B1049091B204A091B304B091C0
:10374000B404181619061A061B06BCF48091B104BD
:103750009091B204A091B304B091B4040197A1096F
:10376000B1098093B1049093B204A093B304B093D1
:10377000B40403C080917201A2DFFF91EF91BF9169
:10378000AF919F918F917F916F915F914F913F91F9
:103790002F910F900FBE0F901F90189540E855E2A3
:1037A00060E070E080E090E000C026E08BE094E014
:1037B00092CD1F920F920FB60F9211242F933F9329
:1037C0004F935F936F937F938F939F93AF93BF9329
:1037D000EF93FF938BEC93EF90938500809384009D
:1037E0000E947027FF91EF91BF91AF919F918F91B0
:1037F0007F916F915F914F913F912F910F900FBEED
:103800000F901F9018958BEC93EF90938500809309
:103810008400AFE6B0E08C918E7F8C93E0E8F0E01E
:1038200080818C7F8083E1E8F0E08081877E8083E7
:1038300080818560808380818D7F80838C91816091
:103840008C93089581E008956F927F928F929F925A
:10385000AF92BF92CF92DF92EF92FF920F931F939E
:10386000CF93DF935C017B014A0101E010E00E156C
:103870001F0564F568018FEFC81AD80AE801CC0F5C
:10388000DD1FC80DD91D6880798061147104E1F0D5
:1038900061E372E0C3010E94572D892B19F419824C
:1038A000188212C064E372E0C3010E94572D892B75
:1038B00059F4CE14DF0441F06801E2E0CE0ED11CD1
:1038C000198218821B821A828601D1CF81E0F5010C
:1038D0008083B401C7010E94C126F50192838183D0
:1038E00080E090E0DF91CF911F910F91FF90EF90DA
:1038F000DF90CF90BF90AF909F908F907F906F9010
:10390000089585EB94E0089580E008950F931F9348
:10391000CF93DF938B01BA01E901198218829801D4
:10392000012E000C440B550BFC01818192814FDA72
:10393000019621F01983088380E001C081E0DF91C6
:10394000CF911F910F9108950F931F93CF93DF9302
:1039500000D0CDB7DEB7FB018A01B9019E012F5F10
:103960003F4FAF01FC01818192810E94D8260196D0
:1039700039F089819A81F8019183808380E001C0C8
:1039800081E00F900F90DF91CF911F910F910895DB
:10399000FC01808108950895089581E0FB018083F2
:1039A00080E0089508951092DF040895FC0181815C
:1039B00092810C94B826CF93DF93CDB7DEB72A97C8
:1039C0000FB6F894DEBF0FBECDBFAC01CB0160E0F7
:1039D00070E049835A836B837C83092E000CAA0B09
:1039E000BB0B8D839E83AF83B8879E01275F3F4FBC
:1039F000AE014F5F5F4F68E070E08091CE04909120
:103A0000CF0484DF811108C081E029853A85283000
:103A1000310519F480E001C081E02A960FB6F894D0
:103A2000DEBF0FBECDBFDF91CF9108950F931F93DF
:103A3000CF93DF9300D0CDB7DEB78B019E012F5F10
:103A40003F4FAC018091CE049091CF045FDF811194
:103A500008C081E029813A812017310719F480E0FC
:103A600001C081E00F900F90DF91CF911F910F91D6
:103A70000895CF93DF93EC011092D2041092D104F9
:103A80001092DE041092DD04AC0160E070E0CB0126
:103A90000E945610AE0161E070E080E090E00E946C
:103AA00056108091CE049091CF04DF91CF917ACFC0
:103AB0004F925F926F927F928F929F92AF92BF923E
:103AC000CF92DF92EF92FF920F931F93CF93DF93EA
:103AD00000D0CDB7DEB79C016C0197FF03C087E033
:103AE000C80ED11C43E0D594C7944A95E1F7C901AB
:103AF00068E070E00E94762B7C0189010E5F1F4F09
:103B00008091CC049091CD04801791070CF0DCC01B
:103B10008091CA049091CB04009731F00E94AF2CA1
:103B20001092CD041092CC04C8010E941A2C9093DC
:103B3000CB048093CA04892B29F01093CD04009301
:103B4000CC04C2C0A12CB12CAC14BD040CF05EC0DE
:103B5000412C512C320100E010E098012D523B4FD6
:103B6000AE014F5F5F4F61E070E08091CE049091B5
:103B7000CF04EADE811198C189819A812FEF421A20
:103B8000520A620A720A20E942162FE5520621E023
:103B9000620671043CF06091DD047091DE048DEEEC
:103BA00090E02DC0080F191F0A30110551F549E0AA
:103BB00050E060E070E083ED94E00E946227609145
:103BC000DD047091DE048823C1F08091DB0490E075
:103BD0006817790709F0B8CF8EEE90E0ECDE80919F
:103BE000DD049091DE04019699279093DE04809382
:103BF000DD048FEFA81AB80AA7CF8FEE90E0DBDEC6
:103C0000A7CF0A3011050CF4A8CF9ECFEF2809F4F6
:103C10004BC1C12CD12C760100E010E098012D524F
:103C20003B4FAE014F5F5F4F61E070E08091CE048B
:103C30009091CF0489DE811137C189819A812FEF5C
:103C4000C21AD20AE20AF20A20E9C2162FE5D20607
:103C500021E0E206F1043CF06091DD047091DE04A5
:103C60008DEE90E02AC0080F191F0A30110539F5B2
:103C700049E050E060E070E083ED94E00E9462274C
:103C80006091DD047091DE048823A9F08091DB044B
:103C900090E06817790709F007C18EEE90E08BDE9F
:103CA0008091DD049091DE04019699279093DE04C3
:103CB0008093DD04F9C08FEE90E07DDEAACF0A305C
:103CC00011050CF4ABCFF0C000E010E00C151D05A1
:103CD0000CF077C0412C512C3201A12CB12C4801A1
:103CE00093E0880C991C9A95E1F72091CA043091D1
:103CF000CB04C4018A0D9B1D280F391FAE014F5FF5
:103D00005F4F61E070E08091CE049091CF041CDEA3
:103D10008111CAC089819A812FEF421A520A620A20
:103D2000720A20E942162FE5520621E0620671046C
:103D30003CF06091DD047091DE048DEE90E034C0C3
:103D4000A80EB91E8AE0A816B104A9F549E050E012
:103D5000B4018091CA049091CB040E9462276091C3
:103D6000DD047091DE048823E9F08091CA0490910B
:103D7000CB04FC01E80DF91D808590E068177907F8
:103D800009F0A4CF8EEE90E016DE8091DD049091D4
:103D9000DE04019699279093DE048093DD040F5F83
:103DA0001F4F94CF8FEE90E006DE412C512C320154
:103DB000A12CB12C9ACF2AE0A216B1040CF495CF15
:103DC00085CFE114F10409F46AC0680183E0CC0CEA
:103DD000DD1C8A95E1F7812C912C540100E010E064
:103DE00098012D523B4FAE014F5F5F4F61E070E095
:103DF0008091CE049091CF04A7DD811155C08981B7
:103E00009A812FEF821A920AA20AB20A20E9821638
:103E10002FE5920621E0A206B1043CF06091DD049A
:103E20007091DE048DEE90E034C0080F191F0A3047
:103E3000110589F549E050E060E070E083ED94E021
:103E40000E9462276091DD047091DE048823F9F0FE
:103E50008091DB0490E06817790709F58EEE90E019
:103E6000AADD8091CA049091CB04A70163ED74E0B0
:103E70008C0D9D1D0E94472D8091DD049091DE04E4
:103E8000019699279093DE048093DD0408C08FEE9D
:103E900090E091DDA0CF0A3011050CF4A1CF809104
:103EA000CA049091CB0402C080E090E00F900F9084
:103EB000DF91CF911F910F91FF90EF90DF90CF9006
:103EC000BF90AF909F908F907F906F905F904F903A
:103ED0000895CF92DF92EF92FF920F931F93CF93AB
:103EE000DF931F92CDB7DEB76C017B018A01452BB2
:103EF00031F0AB0160E070E0C801E0D78983B70121
:103F0000C60159DD81110DC00115110551F0B70130
:103F1000C8018CDD811105C061E070E0CE01019621
:103F200085DD0F90DF91CF911F910F91FF90EF9062
:103F3000DF90CF900895CF92DF92EF92FF92CF93D0
:103F4000DF93CDB7DEB728970FB6F894DEBF0FBE6C
:103F5000CDBF6B01E12CF12CC982DA82EB82FC82AD
:103F60002D833E834F835887AE014F5F5F4F68E0DC
:103F700070E0AFDF28960FB6F894DEBF0FBECDBF5E
:103F8000DF91CF91FF90EF90DF90CF9008950F9346
:103F90001F93CF93DF93EC018B01B3DC9093CF049D
:103FA0008093CE04009739F0A801BE014DDCEC01EE
:103FB000892B19F40BC0C0E4D2E08091CE0490911B
:103FC000CF04E9DC1092CF041092CE04CE01DF9131
:103FD000CF911F910F9108958091CE049091CF04BD
:103FE000D7CC2F923F924F925F926F927F928F9297
:103FF0009F92AF92BF92CF92DF92EF92FF920F9378
:104000001F93CF93DF93CDB7DEB769970FB6F894C0
:10401000DEBF0FBECDBF2091D204222309F426C2F9
:104020005D8B4C8B688B798B8A8B9B8B9A01AB0158
:10403000BC01CE0101960E94561510E038E0232EF7
:10404000312C89819A81181619060CF00AC21F8634
:104050001E861D861C8689819A81AC85BD85A81720
:10406000B9070CF0F3C1EB81FC812E853F85E20F8F
:10407000F31F208131813093C9042093C8048481C7
:1040800095819093C7048093C604428153815093D5
:10409000C5044093C404468157815093C3044093A0
:1040A000C204820F931F9C01990F440B550B2E8B5A
:1040B0003F8B488F598FC12CD12C76012E893F8997
:1040C000488D598DC216D306E406F50608F0A2C144
:1040D0001F826091C8047091C9048B01072E000CE7
:1040E000220B330BD701C6010496A11DB11D801709
:1040F0009107A207B30728F4E091C404F091C50426
:104100000AC0E4E0F0E0E61BF70BEC0DFD1D80912A
:10411000C2049091C304E80FF91F4080512C612C18
:10412000712CD701C6010596A11DB11D80179107FD
:10413000A207B30728F4E091C404F091C5040AC0B3
:10414000E5E0F0E0E61BF70BEC0DFD1D8091C204ED
:104150009091C304E80FF91F8081582AD701C60146
:104160000696A11DB11D80179107A207B30728F479
:10417000E091C404F091C5040AC0E6E0F0E0E61B5B
:10418000F70BEC0DFD1D8091C2049091C304E80F64
:10419000F91F8081682AD701C6010796A11DB11DAC
:1041A00080179107A207B30728F4E091C404F091A7
:1041B000C5040AC0E7E0F0E0E61BF70BEC0DFD1DBF
:1041C0008091C2049091C304E80FF91F8081782A7E
:1041D0004601570148E0840E911CA11CB11C081532
:1041E00019052A053B0508F4B4C0C016D106E2063D
:1041F000F30638F48091C4049091C5048C0D9D1D84
:1042000009C0C601861B970B2091C2043091C304DC
:10421000820F931F68E070E009DCE091C804F09120
:10422000C9049F010F2E000C440B550BD301C20192
:10423000880D991DAA1DBB1D281739074A075B0762
:10424000C8F082169306A406B50638F42091C4047B
:104250003091C504C601089609C0C1018E1B9F0B91
:104260008C0D9D1D2091C2043091C304820F931FB9
:10427000B20199C08601BF01685071096C197D09AE
:1042800082169306A406B50638F42091C404309132
:10429000C504C601089609C0C1018E1B9F0B8C0D79
:1042A0009D1D2091C2043091C304820F931FBEDB79
:1042B0008091C8049091C904B101681B790B600F0B
:1042C000711F640D751D8091C2049091C304AEDB13
:1042D0008091C8049091C904AC0148505109FA0179
:1042E000E01BF10BAC01092E000C660B770B84165A
:1042F0009506A606B70638F42091C4043091C5048B
:10430000C60108960AC09101281B390BC9018C0D02
:104310009D1D2091C2043091C304820F931FAF01F1
:1043200060E070E0CBD58F832091C8043091C90440
:10433000A101421B530B9A01200F311F240D351D83
:1043400040E050E0682F8091C2049091C304A2D550
:1043500050C0C016D106E206F306C8F46C197D09F8
:104360008091C4049091C5048C0D9D1D5FDB8091EC
:10437000C8049091C904B101681B790B6C0D7D1DB7
:10438000640D751D8091C2049091C3040CC0C601D8
:10439000861B970B2091C2043091C304B201685F61
:1043A0007F4F820F931F42DB8091C8049091C90414
:1043B000AC01092E000C660B770B84169506A60639
:1043C000B70638F42091C4043091C504C60108969C
:1043D0000AC0D101A81BB90BCD018C0D9D1D2091E8
:1043E000C2043091C304820F931FA20160E070E009
:1043F00065D58F8361E070E0CE01079617DB182F3B
:10440000B8E04B0E511C611C711CC40CD51CE61C81
:10441000F71C54CE8C859D85880F991FED81FE81F8
:10442000E80FF91F488959896A897B8980819181C0
:104430000E9488104C855D854F5F5F4F5D874C877C
:104440008E859F8508969F878E8705CE2C893D890E
:10445000488959896A897B89CE0101960E9456153F
:10446000F0CD112319F08C899D8903DB69960FB675
:10447000F894DEBF0FBECDBFDF91CF911F910F919A
:10448000FF90EF90DF90CF90BF90AF909F908F9074
:104490007F906F905F904F903F902F900895CF93B3
:1044A000DF93EC01AC0160E070E0CB019ADDAE017E
:1044B00061E070E080E090E0DF91CF9192CDCF930A
:1044C0008091CE049091CF041FDAC82F81110BC0C8
:1044D00060E070E0CB010E94580B61E070E080E08A
:1044E00090E00E94580B8C2FCF9108950F931F934B
:1044F00089019A01AB01BC018091CE049091CF0457
:104500004BDA1F910F9108953F924F925F926F92F5
:104510007F928F929F92AF92BF92CF92DF92EF9253
:10452000FF920F931F93CF93DF93CDB7DEB76797BB
:104530000FB6F894DEBF0FBECDBF6C017B015A01F0
:104540008091D204882331F08091D204882309F429
:104550005CC30AC062ED74E08091CE049091CF04F8
:104560001CDA811152C3F0CF8091D1041A821982D2
:10457000882309F46AC0E0E94E2EEFE55E2E66243A
:104580006394712C00E010E0980128543B4FAE0179
:104590004F5F5F4F61E070E08091CE049091CF0457
:1045A000D3D9982E81114DC089819A81080F191F86
:1045B0000115110509F445C081E0481A5108610848
:1045C000710839F46091DD047091DE048DEE90E0A5
:1045D00030C00A30110589F549E050E060E070E034
:1045E00088EB94E06FD46091DD047091DE04882341
:1045F000F1F08091C00490E068177907D9F48EEE4D
:1046000090E0D9D988E0E8EBF4E0DE01199601905A
:104610000D928A95E1F72091DD043091DE042F5F41
:104620003F4F33273093DE042093DD040AC08FEE22
:1046300090E0C1D91A82198204C00A3011050CF425
:10464000A3CF81E029813A8124C000E010E078E026
:10465000672E712C29E030E02C0F3D1F200F311FF9
:10466000AE014F5F5F4FB301601B710B8091CE04B1
:104670009091CF0469D9982E29813A81811108C07F
:10468000020F131F0115110519F00830110514F35D
:1046900081E0121613060CF080E09110B3C288235B
:1046A00009F4B3C28091D104811104C019861A861D
:1046B0001B861C8689859A85AB85BC8580319105D2
:1046C00008F0A3C2FC01EC5CFF4F0C94C72BD60191
:1046D0001696ED91FC91179780819181A281B3810B
:1046E00089839A83AB83BC83AE014F5F5F4F64E0E5
:1046F00070E085E190E07EC18D859E85D9D90097D7
:1047000031F42FEF3FEFA90161E070E00EC0FC0132
:1047100080809180A280B380A701C501B4010E946E
:104720000110A501940160E070E08DE190E068C2A5
:104730008D859E85BDD9009721F42FEF3FEFA9010C
:1047400010C0DC018D909D90AD90BD90AD019501A4
:104750008401B701C6010E949D0CA5019401882324
:1047600019F061E070E002C060E070E08BE190E081
:1047700047C28D859E859CD9009721F42FEF3FEF8E
:10478000A9010FC0FC0181909190A190B190BF014F
:10479000A5019401C6010E94A60EA50194018823DB
:1047A00019F061E070E002C060E070E08CE190E040
:1047B00027C2D6011496ED91FC91159700811181C5
:1047C000F80182809380A080B18060E1462E512C58
:1047D000612C712C49825A826B827C8288E090E045
:1047E000A0E0B0E08D839E83AF83B8879E012F5EEB
:1047F0003F4FAE014F5F5F4F68E070E08091CE04A5
:104800009091CF0483D8882319F000E010E0BBC05A
:1048100089899A890897C9F7D801ED90FC90B8E08A
:10482000EB0EF11CEE0CFF1CEE0CFF1CC7010E94EE
:104830001A2C8C01892B49F349825A826B827C8223
:10484000C7010F2C000CAA0BBB0B8D839E83AF837B
:10485000B8879E012F5E3F4FAE014F5F5F4F68E00C
:1048600070E08091CE049091CF0450D881118BC01C
:1048700089899A89089709F086C0D6011296ED9128
:10488000FC9113974081518162817381D8014D93CE
:104890005D936D937C9313974481558166817781F5
:1048A00014964D935D936D937C9317974085518536
:1048B0006285738518964D935D936D937C931B97DA
:1048C00084859585A685B785F80184879587A68711
:1048D000B787108A118A128A138A84E090E0A0E0D8
:1048E000B0E0848B958BA68BB78B80916C019091F7
:1048F0006D01A0E0B0E0808F918FA28FB38FC501D2
:104900000B2C000CAA0BBB0B848F958FA68FB78F37
:10491000F401D801909680E090E08A159B0554F44C
:104920004191519160E070E04D935D936D937D9363
:104930000196F3CF9E012F5E3F4FA801B7018091F2
:10494000CE049091CF040E94861C81111CC08989DD
:104950009A898E159F05B9F4A70160E070E0C8013F
:10496000ADD28B8B9E012F5E3F4FAE014D5E5F4FF0
:1049700061E070E08091CE049091CF040E94861C8B
:1049800081E08093D104C80167960FB6F894DEBF2A
:104990000FBECDBFDF91CF911F910F91FF90EF9090
:1049A000DF90CF90BF90AF909F908F907F906F904F
:1049B0005F904F903F90D3C78D859E85AF85B88916
:1049C0000097A105B10521F481E08093D0041DC1B9
:1049D0006FD8009789F481E090E0A0E0B0E089838F
:1049E0009A83AB83BC83AE014F5F5F4F64E070E09E
:1049F00082E190E06EDA09C1BC01C6010E94AA0AF8
:104A000019821A821B821C82AE014F5F5F4F64E0E5
:104A100070E082E190E05DDA8111F7C0D5CFD60178
:104A20001496ED91FC9115970190F081E02D008591
:104A300011858FEF89830115110509F472C0D80122
:104A40006D907C90A280B38020E030E060E070E068
:104A500080E090E0861597050CF5F801A281B381FE
:104A6000A20FB31F1296ED91FC911397EE0FFF1F4B
:104A7000EA0DFB1D0190F081E02D16960D90BC9182
:104A8000A02DEA9FA001EB9F500DFA9F500D11241D
:104A9000640F751F0196285F3F4FDCCF83E190E0E4
:104AA0000E94DB1C8111B1C0C12CD12CE12CF12C56
:104AB000E614F7047CF5D8011296ED91FC9113975A
:104AC000EC0DFD1D80809180A281B381AA0FBB1FD8
:104AD000AA0DBB1D2D913C9186819781289F2001B5
:104AE000299F500C389F500C1124B201C4010E9420
:104AF000161D382E920140E050E06981C401CAD1F0
:104B00008983B8E0CB0ED11C31107FC0EFEFEE1AD5
:104B1000FE0ACECF61E070E0CE0101960E94161D24
:104B200074C060E070E083E190E00E94DB1C6DC027
:104B300040E050E060E070E081E190E0CAD981118E
:104B400064C0812C912C5401C501B4010E94840CD5
:104B50008091FF03882321F0A701C501B40141DA48
:104B6000A701C501B4010E94840B8A9489288A2870
:104B70008B2829F0812C912C54018394E5CF10923D
:104B8000D2041092D1041092DE041092DD048091C0
:104B9000CE049091CF040E94D31C37C081E090E0F6
:104BA000909301048093000440E050E060E070E0E6
:104BB00086E190E01FCF81E0D5018C9326C08D85E2
:104BC0009E850E94581D009731F42FEF3FEFA901F9
:104BD00061E070E013C0FC0120813181428153818A
:104BE000CA01B9012C8B3D8B4E8B5F8B0E946110EB
:104BF0002C893D894E895F8960E070E08EE190E00C
:104C00009AD903C0C7010E94391D67960FB6F89460
:104C1000DEBF0FBECDBFDF91CF911F910F91FF90EF
:104C2000EF90DF90CF90BF90AF909F908F907F904C
:104C30006F905F904F903F900895CF92DF92EF92E8
:104C4000FF92CF93DF93EC01C12CD12C7601C701E9
:104C5000B6010E94840CAE01C701B601C2D9AE01F3
:104C6000C701B6010E94840B8091CA049091CB04C5
:104C7000009729F074D61092CB041092CA04CA94FB
:104C8000CD28CE28CF2829F0C12CD12C7601C39471
:104C9000DECF8091D104882359F040E050E060E0FD
:104CA00070E084E190E015D9F82E1092D10401C093
:104CB000F12C8091D204882341F01092D20481E03B
:104CC00090E090936D0180936C018091CE0490915F
:104CD000CF040E94D61C8091CE049091CF040E94F4
:104CE000CB1C8F2DDF91CF91FF90EF90DF90CF9075
:104CF0000895CF93DF93EC01AC0160E070E0CB014D
:104D00000E94C714AE0161E070E080E090E0DF91A6
:104D1000CF910C94C71460E070E0CB010E94331572
:104D200061E070E080E090E00C943315CF92DF9268
:104D3000EF92FF920F931F93CF93DF93EC016A01E1
:104D40007B0100E010E098010E94B11001E010E04A
:104D500020E030E0B701A601CE010E94B110DF9142
:104D6000CF911F910F91FF90EF90DF90CF9008951A
:104D700068EE73E080E090E00E94E91780E090E048
:104D8000089526E040E050E16EE070E08BE094E0B2
:104D90000E946B198BE094E00E94B518892B29F0D2
:104DA0008BE094E00E94CF18F5CF80E090E008956A
:104DB000AF92BF92CF92DF92EF92FF920F931F9329
:104DC000CF93DF9300D0CDB7DEB77A018901F90127
:104DD000118210828BE094E069837A830E94B51877
:104DE00069817A81892B99F15B01DD24D39485E671
:104DF000C82E8091DF04811124C08BE094E00E94D2
:104E0000CF1885369105A9F7D092DF04F501C1923C
:104E10005F01F80180819181019691838083E9CFC0
:104E20008BE094E00E94CF188F3FFFEF9F0749F07F
:104E3000F50181935F01F801808191810196918351
:104E40008083F801808191818E159F0548F380E071
:104E500090E00F900F90DF91CF911F910F91FF90F5
:104E6000EF90DF90CF90BF90AF9008950F931F9376
:104E7000CF93DF93EA0189018BE094E00E949E1AB0
:104E8000F801D183C08380E090E0DF91CF911F9142
:104E90000F910895DC01A40FB51F240F351FAD013C
:104EA000481B590B4217530738F4ED91E627F0E001
:104EB000EF5AFE4F6491F3CF862F08959A01AB010C
:104EC0006FEFE8CFCF93FC01E60FF71FE40FF51F5C
:104ED000C081F4DF91E0C81390E0892FCF9108954D
:104EE0008091E10491E0980F9093E104882349F0C8
:104EF00021E030E03093E3042093E2048093E10466
:104F0000089578940E94E407F8948091E104815018
:104F10008093E1040C94D716FF920F931F93CF93C5
:104F2000DF9300D0CDB7DEB7FF24F394FA820E945E
:104F300022180E94CE1B0091190210911A02F8014A
:104F40001182108260E070E080E090E00E94E01644
:104F50000E94C8087894C80182960E94DF1681E0FA
:104F600090E00E94DB161982AE014F5F5F4F61E057
:104F700070E0F801828193810E94851689818823DF
:104F800011F0F801F6A20E94E616F8940E94031CA4
:104F9000F80180819181892B19F481E096A191110A
:104FA00080E08A8378947894FF24F3948A8188231C
:104FB00071F11982AE014F5F5F4F61E070E0F8015F
:104FC000828193810E94C1168981882311F0F801A2
:104FD000F6A2F80180819181892B31F481E096A1BC
:104FE000911103C080E001C081E08093E0049091C2
:104FF000E00481E0911180E08A838A81882319F09E
:105000000E94221C02C080E090E08A83CFCF0E94E1
:10501000760981E090E00E94DD16F89480E090E04F
:105020000F900F90DF91CF911F910F91FF900895F6
:105030005058BB27AA270ED044C135D130F03AD101
:1050400020F031F49F3F11F41EF42AC10EF4E095D4
:10505000E7FB20C1E92F46D180F3BA176207730737
:105060008407950718F071F49EF55EC10EF4E09583
:105070000B2EBA2FA02D0B01B90190010C01CA0112
:10508000A0011124FF27591B99F0593F50F4503EBD
:1050900068F11A16F040A22F232F342F4427585FAF
:1050A000F3CF469537952795A795F0405395C9F7C7
:1050B0007EF41F16BA0B620B730B840BBAF091507F
:1050C000A1F0FF0FBB1F661F771F881FC2F70EC01E
:1050D000BA0F621F731F841F48F4879577956795F1
:1050E000B795F7959E3F08F0B3CF9395880F08F0DA
:1050F0009927EE0F979587950895A8D008F481E039
:1051000008950CD0DEC0D6D040F0CDD030F021F4E0
:105110005F3F19F0BFC0511108C1C2C0E3D098F37E
:105120009923C9F35523B1F3951B550BBB27AA2728
:1051300062177307840738F09F5F5F4F220F331F9A
:10514000441FAA1FA9F333D00E2E3AF0E0E830D066
:1051500091505040E695001CCAF729D0FE2F27D069
:10516000660F771F881FBB1F261737074807AB0737
:10517000B0E809F0BB0B802DBF01FF2793585F4FAC
:105180002AF09E3F510568F085C0CFC05F3FECF329
:10519000983EDCF3869577956795B795F7959F5F71
:1051A000C9F7880F911D9695879597F90895E1E0C5
:1051B000660F771F881FBB1F621773078407BA0724
:1051C00020F0621B730B840BBA0BEE1F88F7E0957F
:1051D0000895E89409C097FB3EF4909580957095EA
:1051E00061957F4F8F4F9F4F9923A9F0F92F96E933
:1051F000BB279395F695879577956795B795F111A8
:10520000F8CFFAF4BB0F11F460FF1BC06F5F7F4F44
:105210008F4F9F4F16C0882311F096E911C0772356
:1052200021F09EE8872F762F05C0662371F096E85F
:10523000862F70E060E02AF09A95660F771F881F2E
:10524000DAF7880F9695879597F90895990F0008D2
:10525000550FAA0BE0E8FEEF16161706E807F90748
:10526000C0F012161306E407F50798F0621B730BE3
:10527000840B950B39F40A2661F0232B242B252B64
:1052800021F408950A2609F4A140A6958FEF811D07
:10529000811D089597F99F6780E870E060E00895A8
:1052A0009FEF80EC089500240A941616170618063E
:1052B0000906089500240A9412161306140605061A
:1052C0000895092E0394000C11F4882352F0BB0FAB
:1052D00040F4BF2B11F460FF04C06F5F7F4F8F4F0E
:1052E0009F4F089557FD9058440F551F59F05F3F49
:1052F00071F04795880F97FB991F61F09F3F79F0F8
:1053000087950895121613061406551FF2CF469579
:10531000F1DF08C0161617061806991FF1CF8695FB
:105320007105610508940895E894BB2766277727DF
:10533000CB0197F908958ADF08F48FEF08950BD019
:10534000C0CFB1DF28F0B6DF18F0952309F0A2CF67
:10535000A7CF1124EACFC6DFA0F3959FD1F3950F15
:1053600050E0551F629FF001729FBB27F00DB11DE9
:10537000639FAA27F00DB11DAA1F649F6627B00D79
:10538000A11D661F829F2227B00DA11D621F739F62
:10539000B00DA11D621F839FA00D611D221F749F70
:1053A0003327A00D611D231F849F600D211D822FB7
:1053B000762F6A2F11249F5750408AF0E1F08823FE
:1053C0004AF0EE0FFF1FBB1F661F771F881F91500B
:1053D0005040A9F79E3F510570F05CCFA6CF5F3FCC
:1053E000ECF3983EDCF3869577956795B795F7953E
:1053F000E7959F5FC1F7FE2B880F911D96958795C6
:1054000097F90895FA01EE0FFF1F30962105310537
:1054100099F16115710561F48038BFE39B0749F18B
:1054200068949038810561F08038BFEF9B0741F0A8
:10543000992342F5FF3FE1053105210511F1E8947B
:105440000894E795D901AA2329F4AB2FBE2FF85F62
:10545000D0F310C0FF5F70F4A695E0F7F73950F075
:1054600019F0FF3A38F49F779F930CD00F9007FC08
:10547000905808953EF014CF60E070E080E89FE31C
:1054800008954FE79F775F934F933F932F939ED05D
:105490002F913F914F915F9152DF05C019F40EF0AB
:1054A000F9CE42CFFDCE26DFC8F39638C0F707F815
:1054B0000F92E8942BE33AEA48EB5FE74EDF0F9256
:1054C0000F920F924DB75EB70F92C0D0E8E8F0E0B0
:1054D00016D04F915F91EF91FF91E595EE1FFF1F61
:1054E00049F0FE57E0684427EE0F441FFA95E1F7B4
:1054F0004195550B32D00F9007FE26C00895DF93DB
:10550000CF931F930F93FF92EF92DF927B018C0159
:10551000689405C0DA2EEF011EDFFE01E894A59124
:105520002591359145915591AEF3EF0193DDFE0143
:105530009701A801DA9479F7DF90EF90FF900F912F
:105540001F91CF91DF9108959B01AC0160E070E065
:1055500080E89FE3D6CD9ECEACC0CCDEE8F39923A5
:10556000D9F3940F511DBBF39150504094F059F072
:10557000882332F0660F771F881F91505040C1F783
:105580009E3F510544F7880F911D9695879597F991
:1055900008955F3FACF0983E9CF0BB2786957795C9
:1055A0006795B79508F4B1609395C1F7BB0F58F7AD
:1055B00011F460FFE8CF6F5F7F4F8F4F9F4FE3CFB6
:1055C000B4CE0EF076C06CCE689464CE93DEC8F391
:1055D0009923D1F3C6F3DF93CF931F930F93FF92D9
:1055E000C92FDD2788232AF02197660F771F881F90
:1055F000DAF720E030E040E85FEB9FE3883920F005
:10560000803E30F021968F7714DDE0EBF0E003C0B0
:1056100010DDEDEDF0E073DF8B01BE01EC01FB2E40
:105620006F5771097595771F880B990BD4DD28E1A9
:1056300032E741E35FE38FDEAF2D9801AE01FF90CB
:105640000F911F91CF91DF9105DD3BCEFA01DC0177
:10565000AA0FBB1F9B01AC01BF5728F42227332799
:10566000442750781FC0B75188F4AB2F00244695CB
:1056700037952795011CA395D2F3002069F0220FDE
:10568000331F441FB395DAF30DD0D2CC61307105CE
:10569000A0E88A07B94630F49B01AC01662777275A
:1056A00088279078309621F020833183428353837A
:1056B00008959F3F31F0915020F487957795679535
:1056C000B795880F911D9695879597F90895DB01F9
:1056D0008F939F9362D0BF91AF91A29F800D911D38
:1056E000A39F900DB29F900D1124089597FB072E54
:1056F00016F4009406D077FD08D05FD007FC05D0E3
:105700003EF4909581959F4F0895709561957F4FD8
:105710000895A1E21A2EAA1BBB1BFD010DC0AA1FF2
:10572000BB1FEE1FFF1FA217B307E407F50720F00A
:10573000A21BB30BE40BF50B661F771F881F991F85
:105740001A9469F760957095809590959B01AC01CE
:10575000BD01CF010895052E97FB16F400940FD0DC
:1057600057FD05D0D6DF07FC02D046F408C050959F
:105770004095309521953F4F4F4F5F4F089590953D
:105780008095709561957F4F8F4F9F4F0895EE0FD5
:10579000FF1F0590F491E02D099423D0A59F900D53
:1057A000B49F900DA49F800D911D11240895B7FF03
:1057B000F4CFF3DF821B930B0895AA1BBB1B51E1AF
:1057C00007C0AA1FBB1FA617B70710F0A61BB70B71
:1057D000881F991F5A95A9F780959095BC01CD0116
:1057E0000895A29FB001B39FC001A39F700D811DBA
:1057F0001124911DB29F700D811D1124911D0895DA
:105800000F931F93CF93DF93869F8001879F100D87
:10581000969F100D1124C8010DD0EC01009721F0C6
:10582000A80160E070E03CD1CE01DF91CF911F91E3
:105830000F910895CF93DF938230910510F482E0A9
:1058400090E0E0912305F091240520E030E0C0E0F5
:10585000D0E0309711F14081518148175907C0F0CD
:105860004817590761F482819381209719F09B832F
:105870008A832BC0909324058093230526C021158D
:10588000310519F04217530718F49A01BE01DF01E0
:10589000EF010280F381E02DDCCF2115310509F104
:1058A000281B390B2430310590F412968D919C9170
:1058B00013976115710521F0FB019383828304C066
:1058C0009093240580932305FD01329644C0FD0189
:1058D000E20FF31F81939193225031092D933C9352
:1058E0003AC02091210530912205232B41F42091CB
:1058F000020130910301309322052093210520916C
:105900000001309101012115310541F42DB73EB759
:105910004091040150910501241B350BE0912105B4
:10592000F0912205E217F307A0F42E1B3F0B281776
:10593000390778F0AC014E5F5F4F2417350748F008
:105940004E0F5F1F50932205409321058193919341
:1059500002C0E0E0F0E0CF01DF91CF9108950F9316
:105960001F93CF93DF93009709F48CC0FC0132970B
:10597000138212820091230510912405011511054F
:1059800081F420813181820F931F20912105309174
:1059900022052817390779F5F0932205E0932105B0
:1059A00071C0D80140E050E0AE17BF0750F4129626
:1059B0002D913C911397AD012115310509F1D901C4
:1059C000F3CF9D01DA013383228360817181860FD9
:1059D000971F8217930769F4EC0128813981260FFC
:1059E000371F2E5F3F4F318320838A819B819383B2
:1059F0008283452B29F4F0932405E093230542C0CC
:105A00001396FC93EE931297ED01499159919E01E3
:105A1000240F351FE217F30771F480819181840F01
:105A2000951F029611969C938E9382819381139673
:105A30009C938E931297E0E0F0E0D80112968D913E
:105A40009C911397009719F0F8018C01F6CF8D9176
:105A50009C9198012E5F3F4F820F931F209121054B
:105A6000309122052817390769F4309729F41092EC
:105A700024051092230502C013821282109322057E
:105A800000932105DF91CF911F910F910895FB01A4
:105A9000DC0102C001900D9241505040D8F70895AA
:105AA000DC0101C06D9341505040E0F70895FB01C7
:105AB000DC018D91019080190110D9F3990B0895A3
:045AC000F894FFCF88
:105AC4000000250580000100000001000E016601B0
:105AD40000000000010002001A010B050100000093
